{"abi":[{"type":"constructor","inputs":[{"name":"_pyusd","type":"address","internalType":"address"}],"stateMutability":"nonpayable"},{"type":"function","name":"FACTOR_FEE_PERCENT","inputs":[],"outputs":[{"name":"","type":"uint256","internalType":"uint256"}],"stateMutability":"view"},{"type":"function","name":"MIN_FACTOR_AMOUNT","inputs":[],"outputs":[{"name":"","type":"uint256","internalType":"uint256"}],"stateMutability":"view"},{"type":"function","name":"PYUSD","inputs":[],"outputs":[{"name":"","type":"address","internalType":"contract IERC20"}],"stateMutability":"view"},{"type":"function","name":"businessInvoices","inputs":[{"name":"","type":"address","internalType":"address"},{"name":"","type":"uint256","internalType":"uint256"}],"outputs":[{"name":"","type":"uint256","internalType":"uint256"}],"stateMutability":"view"},{"type":"function","name":"calculateFactorAmount","inputs":[{"name":"_invoiceAmount","type":"uint256","internalType":"uint256"}],"outputs":[{"name":"","type":"uint256","internalType":"uint256"}],"stateMutability":"pure"},{"type":"function","name":"collectReturns","inputs":[],"outputs":[],"stateMutability":"nonpayable"},{"type":"function","name":"createInvoiceFromData","inputs":[{"name":"_customer","type":"address","internalType":"address"},{"name":"_amount","type":"uint256","internalType":"uint256"},{"name":"_dueDate","type":"uint256","internalType":"uint256"},{"name":"_description","type":"string","internalType":"string"}],"outputs":[{"name":"","type":"uint256","internalType":"uint256"}],"stateMutability":"nonpayable"},{"type":"function","name":"depositLiquidity","inputs":[{"name":"_amount","type":"uint256","internalType":"uint256"}],"outputs":[],"stateMutability":"nonpayable"},{"type":"function","name":"factorInvoice","inputs":[{"name":"_invoiceId","type":"uint256","internalType":"uint256"}],"outputs":[],"stateMutability":"nonpayable"},{"type":"function","name":"factorInvoices","inputs":[{"name":"","type":"address","internalType":"address"},{"name":"","type":"uint256","internalType":"uint256"}],"outputs":[{"name":"","type":"uint256","internalType":"uint256"}],"stateMutability":"view"},{"type":"function","name":"getAvailableLiquidity","inputs":[],"outputs":[{"name":"","type":"uint256","internalType":"uint256"}],"stateMutability":"view"},{"type":"function","name":"getBusinessInvoices","inputs":[{"name":"_business","type":"address","internalType":"address"}],"outputs":[{"name":"","type":"uint256[]","internalType":"uint256[]"}],"stateMutability":"view"},{"type":"function","name":"getFactorInvoices","inputs":[{"name":"_factor","type":"address","internalType":"address"}],"outputs":[{"name":"","type":"uint256[]","internalType":"uint256[]"}],"stateMutability":"view"},{"type":"function","name":"getInvestor","inputs":[{"name":"_investor","type":"address","internalType":"address"}],"outputs":[{"name":"","type":"tuple","internalType":"struct InvoiceFactoring.Investor","components":[{"name":"totalDeposited","type":"uint256","internalType":"uint256"},{"name":"totalEarned","type":"uint256","internalType":"uint256"},{"name":"isActive","type":"bool","internalType":"bool"}]}],"stateMutability":"view"},{"type":"function","name":"getInvoice","inputs":[{"name":"_invoiceId","type":"uint256","internalType":"uint256"}],"outputs":[{"name":"","type":"tuple","internalType":"struct InvoiceFactoring.Invoice","components":[{"name":"id","type":"uint256","internalType":"uint256"},{"name":"business","type":"address","internalType":"address"},{"name":"customer","type":"address","internalType":"address"},{"name":"amount","type":"uint256","internalType":"uint256"},{"name":"dueDate","type":"uint256","internalType":"uint256"},{"name":"description","type":"string","internalType":"string"},{"name":"isFactored","type":"bool","internalType":"bool"},{"name":"isPaid","type":"bool","internalType":"bool"},{"name":"factorAmount","type":"uint256","internalType":"uint256"},{"name":"factor","type":"address","internalType":"address"}]}],"stateMutability":"view"},{"type":"function","name":"investors","inputs":[{"name":"","type":"address","internalType":"address"}],"outputs":[{"name":"totalDeposited","type":"uint256","internalType":"uint256"},{"name":"totalEarned","type":"uint256","internalType":"uint256"},{"name":"isActive","type":"bool","internalType":"bool"}],"stateMutability":"view"},{"type":"function","name":"invoices","inputs":[{"name":"","type":"uint256","internalType":"uint256"}],"outputs":[{"name":"id","type":"uint256","internalType":"uint256"},{"name":"business","type":"address","internalType":"address"},{"name":"customer","type":"address","internalType":"address"},{"name":"amount","type":"uint256","internalType":"uint256"},{"name":"dueDate","type":"uint256","internalType":"uint256"},{"name":"description","type":"string","internalType":"string"},{"name":"isFactored","type":"bool","internalType":"bool"},{"name":"isPaid","type":"bool","internalType":"bool"},{"name":"factorAmount","type":"uint256","internalType":"uint256"},{"name":"factor","type":"address","internalType":"address"}],"stateMutability":"view"},{"type":"function","name":"nextInvoiceId","inputs":[],"outputs":[{"name":"","type":"uint256","internalType":"uint256"}],"stateMutability":"view"},{"type":"function","name":"owner","inputs":[],"outputs":[{"name":"","type":"address","internalType":"address"}],"stateMutability":"view"},{"type":"function","name":"payInvoice","inputs":[{"name":"_invoiceId","type":"uint256","internalType":"uint256"}],"outputs":[],"stateMutability":"nonpayable"},{"type":"function","name":"renounceOwnership","inputs":[],"outputs":[],"stateMutability":"nonpayable"},{"type":"function","name":"totalFactored","inputs":[],"outputs":[{"name":"","type":"uint256","internalType":"uint256"}],"stateMutability":"view"},{"type":"function","name":"totalLiquidity","inputs":[],"outputs":[{"name":"","type":"uint256","internalType":"uint256"}],"stateMutability":"view"},{"type":"function","name":"transferOwnership","inputs":[{"name":"newOwner","type":"address","internalType":"address"}],"outputs":[],"stateMutability":"nonpayable"},{"type":"function","name":"withdrawLiquidity","inputs":[{"name":"_amount","type":"uint256","internalType":"uint256"}],"outputs":[],"stateMutability":"nonpayable"},{"type":"event","name":"InvoiceCreated","inputs":[{"name":"invoiceId","type":"uint256","indexed":true,"internalType":"uint256"},{"name":"business","type":"address","indexed":true,"internalType":"address"},{"name":"amount","type":"uint256","indexed":false,"internalType":"uint256"}],"anonymous":false},{"type":"event","name":"InvoiceFactored","inputs":[{"name":"invoiceId","type":"uint256","indexed":true,"internalType":"uint256"},{"name":"factor","type":"address","indexed":true,"internalType":"address"},{"name":"factorAmount","type":"uint256","indexed":false,"internalType":"uint256"}],"anonymous":false},{"type":"event","name":"InvoicePaid","inputs":[{"name":"invoiceId","type":"uint256","indexed":true,"internalType":"uint256"},{"name":"amount","type":"uint256","indexed":false,"internalType":"uint256"}],"anonymous":false},{"type":"event","name":"LiquidityDeposited","inputs":[{"name":"investor","type":"address","indexed":true,"internalType":"address"},{"name":"amount","type":"uint256","indexed":false,"internalType":"uint256"}],"anonymous":false},{"type":"event","name":"LiquidityWithdrawn","inputs":[{"name":"investor","type":"address","indexed":true,"internalType":"address"},{"name":"amount","type":"uint256","indexed":false,"internalType":"uint256"}],"anonymous":false},{"type":"event","name":"OwnershipTransferred","inputs":[{"name":"previousOwner","type":"address","indexed":true,"internalType":"address"},{"name":"newOwner","type":"address","indexed":true,"internalType":"address"}],"anonymous":false},{"type":"event","name":"ReturnsCollected","inputs":[{"name":"factor","type":"address","indexed":true,"internalType":"address"},{"name":"amount","type":"uint256","indexed":false,"internalType":"uint256"}],"anonymous":false},{"type":"error","name":"OwnableInvalidOwner","inputs":[{"name":"owner","type":"address","internalType":"address"}]},{"type":"error","name":"OwnableUnauthorizedAccount","inputs":[{"name":"account","type":"address","internalType":"address"}]},{"type":"error","name":"ReentrancyGuardReentrantCall","inputs":[]}],"bytecode":{"object":"0x60a06040526001805534801562000014575f80fd5b5060405162001ef838038062001ef88339810160408190526200003791620000ee565b60017f9b779b17422d0df92223018b32b4d1fa46e071723d6817e2486d003becc55f005533806200008157604051631e4fbdf760e01b81525f600482015260240160405180910390fd5b6200008c816200009f565b506001600160a01b03166080526200011d565b5f80546001600160a01b038381166001600160a01b0319831681178455604051919092169283917f8be0079c531659141344cd1fd0a4f28419497f9722a3daafe3b4186f6b6457e09190a35050565b5f60208284031215620000ff575f80fd5b81516001600160a01b038116811462000116575f80fd5b9392505050565b608051611d9f620001595f395f818161034c015281816105c901528181610b1301528181610da4015281816111df01526115030152611d9f5ff3fe608060405234801561000f575f80fd5b506004361061016d575f3560e01c80637fcc2dd7116100d95780639e19789d11610093578063bd3a60661161006e578063bd3a60661461038c578063c396fb291461039f578063cd7a93d4146103a7578063f2fde38b146103b0575f80fd5b80639e19789d14610347578063ac60a6cd1461036e578063b155906c14610381575f80fd5b80637fcc2dd7146102a957806380311d12146102bc578063813cc25b146102c45780638da5cb5b146102e45780638f35a75e146103085780639b745aec1461033f575f80fd5b80634e6d14051161012a5780634e6d1405146101fb5780636b01f43f146102245780636f7bc9be146102375780636ff2a95314610285578063715018a61461028e57806376d58e1a14610296575f80fd5b806309d0d1ae146101715780630a861f2a1461019757806315770f92146101ac5780633a23cc0a146101b5578063418957b4146101d55780634e170e99146101e8575b5f80fd5b61018461017f3660046117e2565b6103c3565b6040519081526020015b60405180910390f35b6101aa6101a53660046117e2565b6103e1565b005b61018460025481565b6101c86101c33660046117e2565b6106a6565b60405161018e919061183c565b6101aa6101e33660046117e2565b610827565b6101846101f6366004611914565b610c11565b61020e6102093660046117e2565b610c3c565b60405161018e9a9998979695949392919061193c565b610184610232366004611914565b610d2f565b6102686102453660046119a7565b60056020525f908152604090208054600182015460029092015490919060ff1683565b60408051938452602084019290925215159082015260600161018e565b61018460015481565b6101aa610d48565b6101aa6102a43660046117e2565b610d5b565b6101846102b73660046119db565b610eee565b6101aa611146565b6102d76102d23660046119a7565b6112b1565b60405161018e9190611aa9565b5f546001600160a01b03165b6040516001600160a01b03909116815260200161018e565b61031b6103163660046119a7565b61131a565b6040805182518152602080840151908201529181015115159082015260600161018e565b600254610184565b6102f07f000000000000000000000000000000000000000000000000000000000000000081565b6101aa61037c3660046117e2565b611383565b6101846302faf08081565b6102d761039a3660046119a7565b61167c565b610184601481565b61018460035481565b6101aa6103be3660046119a7565b6116e3565b5f60646103d1836050611b00565b6103db9190611b17565b92915050565b6103e961171d565b5f81116104115760405162461bcd60e51b815260040161040890611b36565b60405180910390fd5b335f908152600560205260409020548111156104665760405162461bcd60e51b8152602060048201526014602482015273496e73756666696369656e742062616c616e636560601b6044820152606401610408565b335f908152600760209081526040808320805482518185028101850190935280835291929091908301828280156104ba57602002820191905f5260205f20905b8154815260200190600101908083116104a6575b505050505090505f5b81518110156105715760045f8383815181106104e1576104e1611b6d565b602002602001015181526020019081526020015f2060060160019054906101000a900460ff1661055f5760405162461bcd60e51b8152602060048201526024808201527f43616e6e6f7420776974686472617720776974682061637469766520696e766f6044820152636963657360e01b6064820152608401610408565b8061056981611b81565b9150506104c3565b50335f9081526005602052604081208054849290610590908490611b99565b925050819055508160025f8282546105a89190611b99565b909155505060405163a9059cbb60e01b8152336004820152602481018390527f00000000000000000000000000000000000000000000000000000000000000006001600160a01b03169063a9059cbb906044016020604051808303815f875af1158015610617573d5f803e3d5ffd5b505050506040513d601f19601f8201168201806040525081019061063b9190611bac565b6106575760405162461bcd60e51b815260040161040890611bcb565b60405182815233907fb1cce8684b4ffa8667b4577654e61ee3480d661ee9c27522ac80e211f6bd4d259060200160405180910390a2506106a360015f80516020611d4a83398151915255565b50565b60408051610140810182525f8082526020820181905291810182905260608082018390526080820183905260a082015260c0810182905260e0810182905261010081018290526101208101919091525f828152600460208181526040928390208351610140810185528154815260018201546001600160a01b03908116938201939093526002820154909216938201939093526003830154606082015290820154608082015260058201805491929160a08401919061076490611bf4565b80601f016020809104026020016040519081016040528092919081815260200182805461079090611bf4565b80156107db5780601f106107b2576101008083540402835291602001916107db565b820191905f5260205f20905b8154815290600101906020018083116107be57829003601f168201915b5050509183525050600682015460ff808216151560208401526101009091041615156040820152600782015460608201526008909101546001600160a01b031660809091015292915050565b61082f61171d565b5f81815260046020526040812080549091036108865760405162461bcd60e51b8152602060048201526016602482015275125b9d9bda58d948191bd95cc81b9bdd08195e1a5cdd60521b6044820152606401610408565b600681015460ff16156108db5760405162461bcd60e51b815260206004820152601860248201527f496e766f69636520616c726561647920666163746f72656400000000000000006044820152606401610408565b6006810154610100900460ff161561092c5760405162461bcd60e51b8152602060048201526014602482015273125b9d9bda58d948185b1c9958591e481c185a5960621b6044820152606401610408565b806004015442106109745760405162461bcd60e51b8152602060048201526012602482015271496e766f696365206973206f76657264756560701b6044820152606401610408565b5f6064826003015460506109889190611b00565b6109929190611b17565b90506302faf0808110156109e85760405162461bcd60e51b815260206004820152601760248201527f466163746f7220616d6f756e7420746f6f20736d616c6c0000000000000000006044820152606401610408565b806002541015610a335760405162461bcd60e51b8152602060048201526016602482015275496e73756666696369656e74206c697175696469747960501b6044820152606401610408565b60068201805460ff19166001179055600782018190556008820180546001600160a01b031916339081179091555f9081526005602052604090206002015460ff16610a9557335f908152600560205260409020600201805460ff191660011790555b335f9081526005602052604081208054839290610ab3908490611c2c565b925050819055508060025f828254610acb9190611b99565b925050819055508060035f828254610ae39190611c2c565b9091555050600182015460405163a9059cbb60e01b81526001600160a01b039182166004820152602481018390527f00000000000000000000000000000000000000000000000000000000000000009091169063a9059cbb906044016020604051808303815f875af1158015610b5b573d5f803e3d5ffd5b505050506040513d601f19601f82011682018060405250810190610b7f9190611bac565b610b9b5760405162461bcd60e51b815260040161040890611bcb565b335f818152600760209081526040808320805460018101825590845291909220018590555184907f7e786c17cf2af4563da003063347d36dfacb540f4f6a45548e3f9a04e476920b90610bf19085815260200190565b60405180910390a350506106a360015f80516020611d4a83398151915255565b6007602052815f5260405f208181548110610c2a575f80fd5b905f5260205f20015f91509150505481565b600460208190525f918252604090912080546001820154600283015460038401549484015460058501805494966001600160a01b03948516969390941694919291610c8690611bf4565b80601f0160208091040260200160405190810160405280929190818152602001828054610cb290611bf4565b8015610cfd5780601f10610cd457610100808354040283529160200191610cfd565b820191905f5260205f20905b815481529060010190602001808311610ce057829003601f168201915b50505060068401546007850154600890950154939460ff8083169561010090930416935091506001600160a01b03168a565b6006602052815f5260405f208181548110610c2a575f80fd5b610d50611738565b610d595f611764565b565b610d6361171d565b5f8111610d825760405162461bcd60e51b815260040161040890611b36565b6040516323b872dd60e01b8152336004820152306024820152604481018290527f00000000000000000000000000000000000000000000000000000000000000006001600160a01b0316906323b872dd906064016020604051808303815f875af1158015610df2573d5f803e3d5ffd5b505050506040513d601f19601f82011682018060405250810190610e169190611bac565b610e325760405162461bcd60e51b815260040161040890611bcb565b335f9081526005602052604090206002015460ff16610e6857335f908152600560205260409020600201805460ff191660011790555b335f9081526005602052604081208054839290610e86908490611c2c565b925050819055508060025f828254610e9e9190611c2c565b909155505060405181815233907f7ff07ce9a287649537e4b012e45cf012d90228b12e2b56bb03515a6b5436fcdf9060200160405180910390a26106a360015f80516020611d4a83398151915255565b5f6001600160a01b038516610f455760405162461bcd60e51b815260206004820152601860248201527f496e76616c696420637573746f6d6572206164647265737300000000000000006044820152606401610408565b5f8411610f645760405162461bcd60e51b815260040161040890611b36565b428311610fb35760405162461bcd60e51b815260206004820152601e60248201527f4475652064617465206d75737420626520696e207468652066757475726500006044820152606401610408565b600180545f9182610fc383611b81565b9091555060408051610140810182528281523360208083019182526001600160a01b038b8116848601908152606085018c8152608086018c815260a087018c81525f60c0890181905260e08901819052610100890181905261012089018190528a8152600496879052989098208751815595516001870180549186166001600160a01b031992831617905592516002870180549190951693169290921790925590516003840155519082015591519293509160058201906110849082611c8d565b5060c08201516006828101805460e086015161ffff1990911693151561ff00191693909317610100931515840217905590830151600783015561012090920151600890910180546001600160a01b0319166001600160a01b03909216919091179055335f8181526020928352604080822080546001810182559083529184902090910184905551878152909183917f4e27a303d25b2e40e99bc657bbe98e016a53a2ac1696a9a7d3cd6719cad518fa910160405180910390a395945050505050565b61114e61171d565b335f90815260056020526040902060010154806111a55760405162461bcd60e51b8152602060048201526015602482015274139bc81c995d1d5c9b9cc81d1bc818dbdb1b1958dd605a1b6044820152606401610408565b335f81815260056020526040808220600101919091555163a9059cbb60e01b81526004810191909152602481018290526001600160a01b037f0000000000000000000000000000000000000000000000000000000000000000169063a9059cbb906044016020604051808303815f875af1158015611225573d5f803e3d5ffd5b505050506040513d601f19601f820116820180604052508101906112499190611bac565b6112655760405162461bcd60e51b815260040161040890611bcb565b60405181815233907f11691f640e56d9d1b65ee1521ee5a3decf9be38953abb72f3e0b0a6a5c4b805e9060200160405180910390a250610d5960015f80516020611d4a83398151915255565b6001600160a01b0381165f9081526006602090815260409182902080548351818402810184019094528084526060939283018282801561130e57602002820191905f5260205f20905b8154815260200190600101908083116112fa575b50505050509050919050565b61133d60405180606001604052805f81526020015f81526020015f151581525090565b506001600160a01b03165f908152600560209081526040918290208251606081018452815481526001820154928101929092526002015460ff1615159181019190915290565b61138b61171d565b5f81815260046020526040812080549091036113e25760405162461bcd60e51b8152602060048201526016602482015275125b9d9bda58d948191bd95cc81b9bdd08195e1a5cdd60521b6044820152606401610408565b6006810154610100900460ff16156114335760405162461bcd60e51b8152602060048201526014602482015273125b9d9bda58d948185b1c9958591e481c185a5960621b6044820152606401610408565b600681015460ff166114875760405162461bcd60e51b815260206004820152601e60248201527f496e766f696365206d75737420626520666163746f72656420666972737400006044820152606401610408565b60028101546001600160a01b031633146114db5760405162461bcd60e51b81526020600482015260156024820152744f6e6c7920637573746f6d65722063616e2070617960581b6044820152606401610408565b60038101546040516323b872dd60e01b815233600482015230602482015260448101919091527f00000000000000000000000000000000000000000000000000000000000000006001600160a01b0316906323b872dd906064016020604051808303815f875af1158015611551573d5f803e3d5ffd5b505050506040513d601f19601f820116820180604052508101906115759190611bac565b6115b25760405162461bcd60e51b815260206004820152600e60248201526d14185e5b595b9d0819985a5b195960921b6044820152606401610408565b60068101805461ff001916610100179055600381015460078201545f906115d99083611b99565b60088401546001600160a01b03165f9081526005602052604081206001018054929350839290919061160c908490611c2c565b925050819055508160025f8282546116249190611c2c565b9091555050600383015460405190815284907f39f50c97c960bc24fff7b795fcb02c20edf14e9ac6efff94534865db301011909060200160405180910390a25050506106a360015f80516020611d4a83398151915255565b6001600160a01b0381165f9081526007602090815260409182902080548351818402810184019094528084526060939283018282801561130e57602002820191905f5260205f20908154815260200190600101908083116112fa5750505050509050919050565b6116eb611738565b6001600160a01b03811661171457604051631e4fbdf760e01b81525f6004820152602401610408565b6106a381611764565b6117256117b3565b60025f80516020611d4a83398151915255565b5f546001600160a01b03163314610d595760405163118cdaa760e01b8152336004820152602401610408565b5f80546001600160a01b038381166001600160a01b0319831681178455604051919092169283917f8be0079c531659141344cd1fd0a4f28419497f9722a3daafe3b4186f6b6457e09190a35050565b5f80516020611d4a83398151915254600203610d5957604051633ee5aeb560e01b815260040160405180910390fd5b5f602082840312156117f2575f80fd5b5035919050565b5f81518084525f5b8181101561181d57602081850181015186830182015201611801565b505f602082860101526020601f19601f83011685010191505092915050565b60208152815160208201525f602083015161186260408401826001600160a01b03169052565b5060408301516001600160a01b03811660608401525060608301516080830152608083015160a083015260a08301516101408060c08501526118a86101608501836117f9565b915060c08501516118bd60e086018215159052565b5060e08501516101006118d38187018315159052565b86015161012086810191909152909501516001600160a01b031693019290925250919050565b80356001600160a01b038116811461190f575f80fd5b919050565b5f8060408385031215611925575f80fd5b61192e836118f9565b946020939093013593505050565b5f6101408c835260018060a01b03808d166020850152808c1660408501528a60608501528960808501528160a08501526119788285018a6117f9565b97151560c085015295151560e08401525050610100810192909252909116610120909101529695505050505050565b5f602082840312156119b7575f80fd5b6119c0826118f9565b9392505050565b634e487b7160e01b5f52604160045260245ffd5b5f805f80608085870312156119ee575f80fd5b6119f7856118f9565b93506020850135925060408501359150606085013567ffffffffffffffff80821115611a21575f80fd5b818701915087601f830112611a34575f80fd5b813581811115611a4657611a466119c7565b604051601f8201601f19908116603f01168101908382118183101715611a6e57611a6e6119c7565b816040528281528a6020848701011115611a86575f80fd5b826020860160208301375f60208483010152809550505050505092959194509250565b602080825282518282018190525f9190848201906040850190845b81811015611ae057835183529284019291840191600101611ac4565b50909695505050505050565b634e487b7160e01b5f52601160045260245ffd5b80820281158282048414176103db576103db611aec565b5f82611b3157634e487b7160e01b5f52601260045260245ffd5b500490565b6020808252601d908201527f416d6f756e74206d7573742062652067726561746572207468616e2030000000604082015260600190565b634e487b7160e01b5f52603260045260245ffd5b5f60018201611b9257611b92611aec565b5060010190565b818103818111156103db576103db611aec565b5f60208284031215611bbc575f80fd5b815180151581146119c0575f80fd5b6020808252600f908201526e151c985b9cd9995c8819985a5b1959608a1b604082015260600190565b600181811c90821680611c0857607f821691505b602082108103611c2657634e487b7160e01b5f52602260045260245ffd5b50919050565b808201808211156103db576103db611aec565b601f821115611c88575f81815260208120601f850160051c81016020861015611c655750805b601f850160051c820191505b81811015611c8457828155600101611c71565b5050505b505050565b815167ffffffffffffffff811115611ca757611ca76119c7565b611cbb81611cb58454611bf4565b84611c3f565b602080601f831160018114611cee575f8415611cd75750858301515b5f19600386901b1c1916600185901b178555611c84565b5f85815260208120601f198616915b82811015611d1c57888601518255948401946001909101908401611cfd565b5085821015611d3957878501515f19600388901b60f8161c191681555b5050505050600190811b0190555056fe9b779b17422d0df92223018b32b4d1fa46e071723d6817e2486d003becc55f00a2646970667358221220d78c004013f20eb14911fb9f5cae6e05f77648f40f1b9c469dfc33ab1a91e78364736f6c63430008140033","linkReferences":{}},"methodIdentifiers":{"FACTOR_FEE_PERCENT()":"c396fb29","MIN_FACTOR_AMOUNT()":"b155906c","PYUSD()":"9e19789d","businessInvoices(address,uint256)":"6b01f43f","calculateFactorAmount(uint256)":"09d0d1ae","collectReturns()":"80311d12","createInvoiceFromData(address,uint256,uint256,string)":"7fcc2dd7","depositLiquidity(uint256)":"76d58e1a","factorInvoice(uint256)":"418957b4","factorInvoices(address,uint256)":"4e170e99","getAvailableLiquidity()":"9b745aec","getBusinessInvoices(address)":"813cc25b","getFactorInvoices(address)":"bd3a6066","getInvestor(address)":"8f35a75e","getInvoice(uint256)":"3a23cc0a","investors(address)":"6f7bc9be","invoices(uint256)":"4e6d1405","nextInvoiceId()":"6ff2a953","owner()":"8da5cb5b","payInvoice(uint256)":"ac60a6cd","renounceOwnership()":"715018a6","totalFactored()":"cd7a93d4","totalLiquidity()":"15770f92","transferOwnership(address)":"f2fde38b","withdrawLiquidity(uint256)":"0a861f2a"},"id":28}