{"abi":[{"type":"constructor","inputs":[{"name":"_pyusd","type":"address","internalType":"address"}],"stateMutability":"nonpayable"},{"type":"function","name":"FACTOR_FEE_PERCENT","inputs":[],"outputs":[{"name":"","type":"uint256","internalType":"uint256"}],"stateMutability":"view"},{"type":"function","name":"MIN_FACTOR_AMOUNT","inputs":[],"outputs":[{"name":"","type":"uint256","internalType":"uint256"}],"stateMutability":"view"},{"type":"function","name":"PYUSD","inputs":[],"outputs":[{"name":"","type":"address","internalType":"contract IERC20"}],"stateMutability":"view"},{"type":"function","name":"businessInvoices","inputs":[{"name":"","type":"address","internalType":"address"},{"name":"","type":"uint256","internalType":"uint256"}],"outputs":[{"name":"","type":"uint256","internalType":"uint256"}],"stateMutability":"view"},{"type":"function","name":"calculateFactorAmount","inputs":[{"name":"_invoiceAmount","type":"uint256","internalType":"uint256"}],"outputs":[{"name":"","type":"uint256","internalType":"uint256"}],"stateMutability":"pure"},{"type":"function","name":"collectReturns","inputs":[],"outputs":[],"stateMutability":"nonpayable"},{"type":"function","name":"createFactoredInvoice","inputs":[{"name":"_customer","type":"address","internalType":"address"},{"name":"_amount","type":"uint256","internalType":"uint256"},{"name":"_dueDate","type":"uint256","internalType":"uint256"},{"name":"_description","type":"string","internalType":"string"}],"outputs":[{"name":"","type":"uint256","internalType":"uint256"}],"stateMutability":"nonpayable"},{"type":"function","name":"createInvoiceFromData","inputs":[{"name":"_customer","type":"address","internalType":"address"},{"name":"_amount","type":"uint256","internalType":"uint256"},{"name":"_dueDate","type":"uint256","internalType":"uint256"},{"name":"_description","type":"string","internalType":"string"}],"outputs":[{"name":"","type":"uint256","internalType":"uint256"}],"stateMutability":"nonpayable"},{"type":"function","name":"depositLiquidity","inputs":[{"name":"_amount","type":"uint256","internalType":"uint256"}],"outputs":[],"stateMutability":"nonpayable"},{"type":"function","name":"factorInvoice","inputs":[{"name":"_invoiceId","type":"uint256","internalType":"uint256"}],"outputs":[],"stateMutability":"nonpayable"},{"type":"function","name":"factorInvoices","inputs":[{"name":"","type":"address","internalType":"address"},{"name":"","type":"uint256","internalType":"uint256"}],"outputs":[{"name":"","type":"uint256","internalType":"uint256"}],"stateMutability":"view"},{"type":"function","name":"getAvailableLiquidity","inputs":[],"outputs":[{"name":"","type":"uint256","internalType":"uint256"}],"stateMutability":"view"},{"type":"function","name":"getBusinessInvoices","inputs":[{"name":"_business","type":"address","internalType":"address"}],"outputs":[{"name":"","type":"uint256[]","internalType":"uint256[]"}],"stateMutability":"view"},{"type":"function","name":"getFactorInvoices","inputs":[{"name":"_factor","type":"address","internalType":"address"}],"outputs":[{"name":"","type":"uint256[]","internalType":"uint256[]"}],"stateMutability":"view"},{"type":"function","name":"getInvestor","inputs":[{"name":"_investor","type":"address","internalType":"address"}],"outputs":[{"name":"","type":"tuple","internalType":"struct InvoiceFactoring.Investor","components":[{"name":"totalDeposited","type":"uint256","internalType":"uint256"},{"name":"totalEarned","type":"uint256","internalType":"uint256"},{"name":"isActive","type":"bool","internalType":"bool"}]}],"stateMutability":"view"},{"type":"function","name":"getInvoice","inputs":[{"name":"_invoiceId","type":"uint256","internalType":"uint256"}],"outputs":[{"name":"","type":"tuple","internalType":"struct InvoiceFactoring.Invoice","components":[{"name":"id","type":"uint256","internalType":"uint256"},{"name":"business","type":"address","internalType":"address"},{"name":"customer","type":"address","internalType":"address"},{"name":"amount","type":"uint256","internalType":"uint256"},{"name":"dueDate","type":"uint256","internalType":"uint256"},{"name":"description","type":"string","internalType":"string"},{"name":"isFactored","type":"bool","internalType":"bool"},{"name":"isPaid","type":"bool","internalType":"bool"},{"name":"factorAmount","type":"uint256","internalType":"uint256"},{"name":"factor","type":"address","internalType":"address"}]}],"stateMutability":"view"},{"type":"function","name":"investors","inputs":[{"name":"","type":"address","internalType":"address"}],"outputs":[{"name":"totalDeposited","type":"uint256","internalType":"uint256"},{"name":"totalEarned","type":"uint256","internalType":"uint256"},{"name":"isActive","type":"bool","internalType":"bool"}],"stateMutability":"view"},{"type":"function","name":"invoices","inputs":[{"name":"","type":"uint256","internalType":"uint256"}],"outputs":[{"name":"id","type":"uint256","internalType":"uint256"},{"name":"business","type":"address","internalType":"address"},{"name":"customer","type":"address","internalType":"address"},{"name":"amount","type":"uint256","internalType":"uint256"},{"name":"dueDate","type":"uint256","internalType":"uint256"},{"name":"description","type":"string","internalType":"string"},{"name":"isFactored","type":"bool","internalType":"bool"},{"name":"isPaid","type":"bool","internalType":"bool"},{"name":"factorAmount","type":"uint256","internalType":"uint256"},{"name":"factor","type":"address","internalType":"address"}],"stateMutability":"view"},{"type":"function","name":"nextInvoiceId","inputs":[],"outputs":[{"name":"","type":"uint256","internalType":"uint256"}],"stateMutability":"view"},{"type":"function","name":"owner","inputs":[],"outputs":[{"name":"","type":"address","internalType":"address"}],"stateMutability":"view"},{"type":"function","name":"payInvoice","inputs":[{"name":"_invoiceId","type":"uint256","internalType":"uint256"}],"outputs":[],"stateMutability":"nonpayable"},{"type":"function","name":"payInvoiceById","inputs":[{"name":"_invoiceId","type":"uint256","internalType":"uint256"}],"outputs":[],"stateMutability":"nonpayable"},{"type":"function","name":"renounceOwnership","inputs":[],"outputs":[],"stateMutability":"nonpayable"},{"type":"function","name":"totalFactored","inputs":[],"outputs":[{"name":"","type":"uint256","internalType":"uint256"}],"stateMutability":"view"},{"type":"function","name":"totalLiquidity","inputs":[],"outputs":[{"name":"","type":"uint256","internalType":"uint256"}],"stateMutability":"view"},{"type":"function","name":"transferOwnership","inputs":[{"name":"newOwner","type":"address","internalType":"address"}],"outputs":[],"stateMutability":"nonpayable"},{"type":"function","name":"withdrawLiquidity","inputs":[{"name":"_amount","type":"uint256","internalType":"uint256"}],"outputs":[],"stateMutability":"nonpayable"},{"type":"event","name":"InvoiceCreated","inputs":[{"name":"invoiceId","type":"uint256","indexed":true,"internalType":"uint256"},{"name":"business","type":"address","indexed":true,"internalType":"address"},{"name":"amount","type":"uint256","indexed":false,"internalType":"uint256"}],"anonymous":false},{"type":"event","name":"InvoiceFactored","inputs":[{"name":"invoiceId","type":"uint256","indexed":true,"internalType":"uint256"},{"name":"factor","type":"address","indexed":true,"internalType":"address"},{"name":"factorAmount","type":"uint256","indexed":false,"internalType":"uint256"}],"anonymous":false},{"type":"event","name":"InvoicePaid","inputs":[{"name":"invoiceId","type":"uint256","indexed":true,"internalType":"uint256"},{"name":"amount","type":"uint256","indexed":false,"internalType":"uint256"}],"anonymous":false},{"type":"event","name":"LiquidityDeposited","inputs":[{"name":"investor","type":"address","indexed":true,"internalType":"address"},{"name":"amount","type":"uint256","indexed":false,"internalType":"uint256"}],"anonymous":false},{"type":"event","name":"LiquidityWithdrawn","inputs":[{"name":"investor","type":"address","indexed":true,"internalType":"address"},{"name":"amount","type":"uint256","indexed":false,"internalType":"uint256"}],"anonymous":false},{"type":"event","name":"OwnershipTransferred","inputs":[{"name":"previousOwner","type":"address","indexed":true,"internalType":"address"},{"name":"newOwner","type":"address","indexed":true,"internalType":"address"}],"anonymous":false},{"type":"event","name":"ReturnsCollected","inputs":[{"name":"factor","type":"address","indexed":true,"internalType":"address"},{"name":"amount","type":"uint256","indexed":false,"internalType":"uint256"}],"anonymous":false},{"type":"error","name":"OwnableInvalidOwner","inputs":[{"name":"owner","type":"address","internalType":"address"}]},{"type":"error","name":"OwnableUnauthorizedAccount","inputs":[{"name":"account","type":"address","internalType":"address"}]},{"type":"error","name":"ReentrancyGuardReentrantCall","inputs":[]}],"bytecode":{"object":"0x60a06040526001805534801562000014575f80fd5b50604051620022db380380620022db8339810160408190526200003791620000ee565b60017f9b779b17422d0df92223018b32b4d1fa46e071723d6817e2486d003becc55f005533806200008157604051631e4fbdf760e01b81525f600482015260240160405180910390fd5b6200008c816200009f565b506001600160a01b03166080526200011d565b5f80546001600160a01b038381166001600160a01b0319831681178455604051919092169283917f8be0079c531659141344cd1fd0a4f28419497f9722a3daafe3b4186f6b6457e09190a35050565b5f60208284031215620000ff575f80fd5b81516001600160a01b038116811462000116575f80fd5b9392505050565b60805161217b620001605f395f81816103a60152818161058e015281816108ef01528181610e360152818161131c0152818161147e01526118b4015261217b5ff3fe608060405234801561000f575f80fd5b50600436106101a1575f3560e01c806376d58e1a116100f35780639e19789d11610093578063bd3a60661161006e578063bd3a6066146103d3578063c396fb29146103e6578063cd7a93d4146103ee578063f2fde38b146103f7575f80fd5b80639e19789d146103a1578063ac60a6cd146101a5578063b155906c146103c8575f80fd5b8063813cc25b116100ce578063813cc25b1461031e5780638da5cb5b1461033e5780638f35a75e146103625780639b745aec14610399575f80fd5b806376d58e1a146102f05780637fcc2dd71461030357806380311d1214610316575f80fd5b80634e170e991161015e5780636b7eb7be116101395780636b7eb7be1461027e5780636f7bc9be146102915780636ff2a953146102df578063715018a6146102e8575f80fd5b80634e170e991461022f5780634e6d1405146102425780636b01f43f1461026b575f80fd5b8063090e67ea146101a557806309d0d1ae146101ba5780630a861f2a146101e057806315770f92146101f35780633a23cc0a146101fc578063418957b41461021c575b5f80fd5b6101b86101b3366004611bbe565b61040a565b005b6101cd6101c8366004611bbe565b6106f2565b6040519081526020015b60405180910390f35b6101b86101ee366004611bbe565b610710565b6101cd60025481565b61020f61020a366004611bbe565b6109c9565b6040516101d79190611c18565b6101b861022a366004611bbe565b610b4a565b6101cd61023d366004611cf0565b610f34565b610255610250366004611bbe565b610f5f565b6040516101d79a99989796959493929190611d18565b6101cd610279366004611cf0565b611052565b6101cd61028c366004611d97565b61106b565b6102c261029f366004611e65565b60056020525f908152604090208054600182015460029092015490919060ff1683565b6040805193845260208401929092521515908201526060016101d7565b6101cd60015481565b6101b8611422565b6101b86102fe366004611bbe565b611435565b6101cd610311366004611d97565b6115c8565b6101b861181b565b61033161032c366004611e65565b611986565b6040516101d79190611e85565b5f546001600160a01b03165b6040516001600160a01b0390911681526020016101d7565b610375610370366004611e65565b6119ef565b604080518251815260208084015190820152918101511515908201526060016101d7565b6002546101cd565b61034a7f000000000000000000000000000000000000000000000000000000000000000081565b6101cd6302faf08081565b6103316103e1366004611e65565b611a58565b6101cd601481565b6101cd60035481565b6101b8610405366004611e65565b611abf565b610412611af9565b5f818152600460205260408120805490910361046e5760405162461bcd60e51b8152602060048201526016602482015275125b9d9bda58d948191bd95cc81b9bdd08195e1a5cdd60521b60448201526064015b60405180910390fd5b6006810154610100900460ff16156104bf5760405162461bcd60e51b8152602060048201526014602482015273125b9d9bda58d948185b1c9958591e481c185a5960621b6044820152606401610465565b600681015460ff166105135760405162461bcd60e51b815260206004820152601e60248201527f496e766f696365206d75737420626520666163746f72656420666972737400006044820152606401610465565b60028101546001600160a01b031633146105675760405162461bcd60e51b81526020600482015260156024820152744f6e6c7920637573746f6d65722063616e2070617960581b6044820152606401610465565b6040516323b872dd60e01b8152336004820152306024820152620f424060448201819052907f00000000000000000000000000000000000000000000000000000000000000006001600160a01b0316906323b872dd906064016020604051808303815f875af11580156105dc573d5f803e3d5ffd5b505050506040513d601f19601f820116820180604052508101906106009190611ec8565b61063d5760405162461bcd60e51b815260206004820152600e60248201526d14185e5b595b9d0819985a5b195960921b6044820152606401610465565b60068201805461ff001916610100179055600782015460088301546001600160a01b03165f90815260056020526040812060010180548492839291610683908490611efb565b925050819055508160025f82825461069b9190611efb565b909155505060405183815285907f39f50c97c960bc24fff7b795fcb02c20edf14e9ac6efff94534865db301011909060200160405180910390a2505050506106ef60015f8051602061212683398151915255565b50565b5f6064610700836050611f0e565b61070a9190611f25565b92915050565b610718611af9565b5f81116107375760405162461bcd60e51b815260040161046590611f44565b335f9081526005602052604090205481111561078c5760405162461bcd60e51b8152602060048201526014602482015273496e73756666696369656e742062616c616e636560601b6044820152606401610465565b335f908152600760209081526040808320805482518185028101850190935280835291929091908301828280156107e057602002820191905f5260205f20905b8154815260200190600101908083116107cc575b505050505090505f5b81518110156108975760045f83838151811061080757610807611f7b565b602002602001015181526020019081526020015f2060060160019054906101000a900460ff166108855760405162461bcd60e51b8152602060048201526024808201527f43616e6e6f7420776974686472617720776974682061637469766520696e766f6044820152636963657360e01b6064820152608401610465565b8061088f81611f8f565b9150506107e9565b50335f90815260056020526040812080548492906108b6908490611fa7565b925050819055508160025f8282546108ce9190611fa7565b909155505060405163a9059cbb60e01b8152336004820152602481018390527f00000000000000000000000000000000000000000000000000000000000000006001600160a01b03169063a9059cbb906044016020604051808303815f875af115801561093d573d5f803e3d5ffd5b505050506040513d601f19601f820116820180604052508101906109619190611ec8565b61097d5760405162461bcd60e51b815260040161046590611fba565b60405182815233907fb1cce8684b4ffa8667b4577654e61ee3480d661ee9c27522ac80e211f6bd4d259060200160405180910390a2506106ef60015f8051602061212683398151915255565b60408051610140810182525f8082526020820181905291810182905260608082018390526080820183905260a082015260c0810182905260e0810182905261010081018290526101208101919091525f828152600460208181526040928390208351610140810185528154815260018201546001600160a01b03908116938201939093526002820154909216938201939093526003830154606082015290820154608082015260058201805491929160a084019190610a8790611fe3565b80601f0160208091040260200160405190810160405280929190818152602001828054610ab390611fe3565b8015610afe5780601f10610ad557610100808354040283529160200191610afe565b820191905f5260205f20905b815481529060010190602001808311610ae157829003601f168201915b5050509183525050600682015460ff808216151560208401526101009091041615156040820152600782015460608201526008909101546001600160a01b031660809091015292915050565b610b52611af9565b5f8181526004602052604081208054909103610ba95760405162461bcd60e51b8152602060048201526016602482015275125b9d9bda58d948191bd95cc81b9bdd08195e1a5cdd60521b6044820152606401610465565b600681015460ff1615610bfe5760405162461bcd60e51b815260206004820152601860248201527f496e766f69636520616c726561647920666163746f72656400000000000000006044820152606401610465565b6006810154610100900460ff1615610c4f5760405162461bcd60e51b8152602060048201526014602482015273125b9d9bda58d948185b1c9958591e481c185a5960621b6044820152606401610465565b80600401544210610c975760405162461bcd60e51b8152602060048201526012602482015271496e766f696365206973206f76657264756560701b6044820152606401610465565b5f606482600301546050610cab9190611f0e565b610cb59190611f25565b90506302faf080811015610d0b5760405162461bcd60e51b815260206004820152601760248201527f466163746f7220616d6f756e7420746f6f20736d616c6c0000000000000000006044820152606401610465565b806002541015610d565760405162461bcd60e51b8152602060048201526016602482015275496e73756666696369656e74206c697175696469747960501b6044820152606401610465565b60068201805460ff19166001179055600782018190556008820180546001600160a01b031916339081179091555f9081526005602052604090206002015460ff16610db857335f908152600560205260409020600201805460ff191660011790555b335f9081526005602052604081208054839290610dd6908490611efb565b925050819055508060025f828254610dee9190611fa7565b925050819055508060035f828254610e069190611efb565b9091555050600182015460405163a9059cbb60e01b81526001600160a01b039182166004820152602481018390527f00000000000000000000000000000000000000000000000000000000000000009091169063a9059cbb906044016020604051808303815f875af1158015610e7e573d5f803e3d5ffd5b505050506040513d601f19601f82011682018060405250810190610ea29190611ec8565b610ebe5760405162461bcd60e51b815260040161046590611fba565b335f818152600760209081526040808320805460018101825590845291909220018590555184907f7e786c17cf2af4563da003063347d36dfacb540f4f6a45548e3f9a04e476920b90610f149085815260200190565b60405180910390a350506106ef60015f8051602061212683398151915255565b6007602052815f5260405f208181548110610f4d575f80fd5b905f5260205f20015f91509150505481565b600460208190525f918252604090912080546001820154600283015460038401549484015460058501805494966001600160a01b03948516969390941694919291610fa990611fe3565b80601f0160208091040260200160405190810160405280929190818152602001828054610fd590611fe3565b80156110205780601f10610ff757610100808354040283529160200191611020565b820191905f5260205f20905b81548152906001019060200180831161100357829003601f168201915b50505060068401546007850154600890950154939460ff8083169561010090930416935091506001600160a01b03168a565b6006602052815f5260405f208181548110610f4d575f80fd5b5f6001600160a01b0385166110bd5760405162461bcd60e51b8152602060048201526018602482015277496e76616c696420637573746f6d6572206164647265737360401b6044820152606401610465565b5f84116110dc5760405162461bcd60e51b815260040161046590611f44565b42831161112b5760405162461bcd60e51b815260206004820152601e60248201527f4475652064617465206d75737420626520696e207468652066757475726500006044820152606401610465565b600254627a12009081111561117b5760405162461bcd60e51b8152602060048201526016602482015275496e73756666696369656e74206c697175696469747960501b6044820152606401610465565b600180545f918261118b83611f8f565b9091555060408051610140810182528281523360208083019182526001600160a01b038c8116848601908152606085018d8152608086018d815260a087018d8152600160c089018190525f60e08a018190526101008a018e9052306101208b01528b81526004978890529990992088518155965198870180549986166001600160a01b03199a8b1617905592516002870180549190951698169790971790925590516003840155935190820155915192935091600582019061124d9082612069565b5060c08201516006828101805460e086015161ffff1990911693151561ff00191693909317610100931515840217905590830151600783015561012090920151600890910180546001600160a01b0319166001600160a01b03909216919091179055335f9081526020918252604081208054600181018255908252918120909101829055600280548492906112e3908490611fa7565b925050819055508160035f8282546112fb9190611efb565b909155505060405163a9059cbb60e01b8152336004820152602481018390527f00000000000000000000000000000000000000000000000000000000000000006001600160a01b03169063a9059cbb906044016020604051808303815f875af115801561136a573d5f803e3d5ffd5b505050506040513d601f19601f8201168201806040525081019061138e9190611ec8565b6113aa5760405162461bcd60e51b815260040161046590611fba565b604051868152339082907f4e27a303d25b2e40e99bc657bbe98e016a53a2ac1696a9a7d3cd6719cad518fa9060200160405180910390a3604051828152309082907f7e786c17cf2af4563da003063347d36dfacb540f4f6a45548e3f9a04e476920b9060200160405180910390a39695505050505050565b61142a611b14565b6114335f611b40565b565b61143d611af9565b5f811161145c5760405162461bcd60e51b815260040161046590611f44565b6040516323b872dd60e01b8152336004820152306024820152604481018290527f00000000000000000000000000000000000000000000000000000000000000006001600160a01b0316906323b872dd906064016020604051808303815f875af11580156114cc573d5f803e3d5ffd5b505050506040513d601f19601f820116820180604052508101906114f09190611ec8565b61150c5760405162461bcd60e51b815260040161046590611fba565b335f9081526005602052604090206002015460ff1661154257335f908152600560205260409020600201805460ff191660011790555b335f9081526005602052604081208054839290611560908490611efb565b925050819055508060025f8282546115789190611efb565b909155505060405181815233907f7ff07ce9a287649537e4b012e45cf012d90228b12e2b56bb03515a6b5436fcdf9060200160405180910390a26106ef60015f8051602061212683398151915255565b5f6001600160a01b03851661161a5760405162461bcd60e51b8152602060048201526018602482015277496e76616c696420637573746f6d6572206164647265737360401b6044820152606401610465565b5f84116116395760405162461bcd60e51b815260040161046590611f44565b4283116116885760405162461bcd60e51b815260206004820152601e60248201527f4475652064617465206d75737420626520696e207468652066757475726500006044820152606401610465565b600180545f918261169883611f8f565b9091555060408051610140810182528281523360208083019182526001600160a01b038b8116848601908152606085018c8152608086018c815260a087018c81525f60c0890181905260e08901819052610100890181905261012089018190528a8152600496879052989098208751815595516001870180549186166001600160a01b031992831617905592516002870180549190951693169290921790925590516003840155519082015591519293509160058201906117599082612069565b5060c08201516006828101805460e086015161ffff1990911693151561ff00191693909317610100931515840217905590830151600783015561012090920151600890910180546001600160a01b0319166001600160a01b03909216919091179055335f8181526020928352604080822080546001810182559083529184902090910184905551878152909183917f4e27a303d25b2e40e99bc657bbe98e016a53a2ac1696a9a7d3cd6719cad518fa910160405180910390a395945050505050565b611823611af9565b335f908152600560205260409020600101548061187a5760405162461bcd60e51b8152602060048201526015602482015274139bc81c995d1d5c9b9cc81d1bc818dbdb1b1958dd605a1b6044820152606401610465565b335f81815260056020526040808220600101919091555163a9059cbb60e01b81526004810191909152602481018290526001600160a01b037f0000000000000000000000000000000000000000000000000000000000000000169063a9059cbb906044016020604051808303815f875af11580156118fa573d5f803e3d5ffd5b505050506040513d601f19601f8201168201806040525081019061191e9190611ec8565b61193a5760405162461bcd60e51b815260040161046590611fba565b60405181815233907f11691f640e56d9d1b65ee1521ee5a3decf9be38953abb72f3e0b0a6a5c4b805e9060200160405180910390a25061143360015f8051602061212683398151915255565b6001600160a01b0381165f908152600660209081526040918290208054835181840281018401909452808452606093928301828280156119e357602002820191905f5260205f20905b8154815260200190600101908083116119cf575b50505050509050919050565b611a1260405180606001604052805f81526020015f81526020015f151581525090565b506001600160a01b03165f908152600560209081526040918290208251606081018452815481526001820154928101929092526002015460ff1615159181019190915290565b6001600160a01b0381165f908152600760209081526040918290208054835181840281018401909452808452606093928301828280156119e357602002820191905f5260205f20908154815260200190600101908083116119cf5750505050509050919050565b611ac7611b14565b6001600160a01b038116611af057604051631e4fbdf760e01b81525f6004820152602401610465565b6106ef81611b40565b611b01611b8f565b60025f8051602061212683398151915255565b5f546001600160a01b031633146114335760405163118cdaa760e01b8152336004820152602401610465565b5f80546001600160a01b038381166001600160a01b0319831681178455604051919092169283917f8be0079c531659141344cd1fd0a4f28419497f9722a3daafe3b4186f6b6457e09190a35050565b5f805160206121268339815191525460020361143357604051633ee5aeb560e01b815260040160405180910390fd5b5f60208284031215611bce575f80fd5b5035919050565b5f81518084525f5b81811015611bf957602081850181015186830182015201611bdd565b505f602082860101526020601f19601f83011685010191505092915050565b60208152815160208201525f6020830151611c3e60408401826001600160a01b03169052565b5060408301516001600160a01b03811660608401525060608301516080830152608083015160a083015260a08301516101408060c0850152611c84610160850183611bd5565b915060c0850151611c9960e086018215159052565b5060e0850151610100611caf8187018315159052565b86015161012086810191909152909501516001600160a01b031693019290925250919050565b80356001600160a01b0381168114611ceb575f80fd5b919050565b5f8060408385031215611d01575f80fd5b611d0a83611cd5565b946020939093013593505050565b5f6101408c835260018060a01b03808d166020850152808c1660408501528a60608501528960808501528160a0850152611d548285018a611bd5565b97151560c085015295151560e08401525050610100810192909252909116610120909101529695505050505050565b634e487b7160e01b5f52604160045260245ffd5b5f805f8060808587031215611daa575f80fd5b611db385611cd5565b93506020850135925060408501359150606085013567ffffffffffffffff80821115611ddd575f80fd5b818701915087601f830112611df0575f80fd5b813581811115611e0257611e02611d83565b604051601f8201601f19908116603f01168101908382118183101715611e2a57611e2a611d83565b816040528281528a6020848701011115611e42575f80fd5b826020860160208301375f60208483010152809550505050505092959194509250565b5f60208284031215611e75575f80fd5b611e7e82611cd5565b9392505050565b602080825282518282018190525f9190848201906040850190845b81811015611ebc57835183529284019291840191600101611ea0565b50909695505050505050565b5f60208284031215611ed8575f80fd5b81518015158114611e7e575f80fd5b634e487b7160e01b5f52601160045260245ffd5b8082018082111561070a5761070a611ee7565b808202811582820484141761070a5761070a611ee7565b5f82611f3f57634e487b7160e01b5f52601260045260245ffd5b500490565b6020808252601d908201527f416d6f756e74206d7573742062652067726561746572207468616e2030000000604082015260600190565b634e487b7160e01b5f52603260045260245ffd5b5f60018201611fa057611fa0611ee7565b5060010190565b8181038181111561070a5761070a611ee7565b6020808252600f908201526e151c985b9cd9995c8819985a5b1959608a1b604082015260600190565b600181811c90821680611ff757607f821691505b60208210810361201557634e487b7160e01b5f52602260045260245ffd5b50919050565b601f821115612064575f81815260208120601f850160051c810160208610156120415750805b601f850160051c820191505b818110156120605782815560010161204d565b5050505b505050565b815167ffffffffffffffff81111561208357612083611d83565b612097816120918454611fe3565b8461201b565b602080601f8311600181146120ca575f84156120b35750858301515b5f19600386901b1c1916600185901b178555612060565b5f85815260208120601f198616915b828110156120f8578886015182559484019460019091019084016120d9565b508582101561211557878501515f19600388901b60f8161c191681555b5050505050600190811b0190555056fe9b779b17422d0df92223018b32b4d1fa46e071723d6817e2486d003becc55f00a2646970667358221220f631c695bbd3d71b5059483ccd3dc6ffe086374151e8648612d0bf6d805e762b64736f6c63430008140033","linkReferences":{}},"methodIdentifiers":{"FACTOR_FEE_PERCENT()":"c396fb29","MIN_FACTOR_AMOUNT()":"b155906c","PYUSD()":"9e19789d","businessInvoices(address,uint256)":"6b01f43f","calculateFactorAmount(uint256)":"09d0d1ae","collectReturns()":"80311d12","createFactoredInvoice(address,uint256,uint256,string)":"6b7eb7be","createInvoiceFromData(address,uint256,uint256,string)":"7fcc2dd7","depositLiquidity(uint256)":"76d58e1a","factorInvoice(uint256)":"418957b4","factorInvoices(address,uint256)":"4e170e99","getAvailableLiquidity()":"9b745aec","getBusinessInvoices(address)":"813cc25b","getFactorInvoices(address)":"bd3a6066","getInvestor(address)":"8f35a75e","getInvoice(uint256)":"3a23cc0a","investors(address)":"6f7bc9be","invoices(uint256)":"4e6d1405","nextInvoiceId()":"6ff2a953","owner()":"8da5cb5b","payInvoice(uint256)":"ac60a6cd","payInvoiceById(uint256)":"090e67ea","renounceOwnership()":"715018a6","totalFactored()":"cd7a93d4","totalLiquidity()":"15770f92","transferOwnership(address)":"f2fde38b","withdrawLiquidity(uint256)":"0a861f2a"},"id":20}